:100000000C946E030C948B030C948B030C948B0355
:100010000C948B030C948B030C948B030C948B0328
:100020000C948B030C948B030C94990E0C94DB0DA5
:100030000C94281D0C948B030C948B030C948B0351
:100040000C948B030C948B030C948B030C948B03F8
:100050000C948B030C94E71C0C948B030C948B0373
:100060000C948B030C948B030C948B030C948B03D8
:100070000C948B030C948B030C948B030C948B03C8
:100080000C948B030C948B030C948B030C948B03B8
:100090000C948B030C948B030C948B030C948B03A8
:1000A0000C948B030C948B030C948B03BD04C2043F
:1000B000CC04C004C504CA04C804F605F905FC054F
:1000C000FF050206050608062C082C085F085F08D5
:1000D000DC08FA08000A000AFF0873098409840989
:1000E000EE0B150CC30D150CC30D610C840CC30D68
:1000F000790D890D731380133C119C138C139A1383
:100100009A1398139A1305010980A1018503190117
:100110002AB700150126B700950175108100C005AA
:100120000C0901A101850419012AA002150126A0CC
:1001300002950175108100C005010906A10185061F
:10014000050719E029E715002501950875018102C9
:100150000507190029EF1500250195F075018102A9
:100160000508190129059505750191029501750389
:100170009101C005010902A1010901A100050919A8
:10018000012908150025019508750181020501095D
:100190003009311581257F950275088106093815CA
:1001A00081257F950175088106050C0A38021581A5
:1001B000257F950175088106C0C00660FF0961A111
:1001C000010962150026FF00952075088102096368
:1001D000150026FF00952075089102C0050109064B
:1001E000A101050719E029E715002501950875010A
:1001F00081029501750881010507190029FF150085
:1002000026FF0095067508810005081901290515C6
:10021000002501950575019102950175039101C0B5
:1002200009027400040100A0FA090400000103019E
:100230000100092111010001224400070581030882
:10024000000109040100020300000009211101005E
:100250000122220007058303200001070504032073
:10026000000109040200010301020009211101003B
:100270000122470007058203080001090403000169
:1002800003000000092111010001226D000705850E
:100290000320000112010002000000089732744997
:1002A00001000102000116034500720067006F00A3
:1002B00044006F007800200045005A000000280329
:1002C0005A0053004100200054006500630068009C
:1002D0006E006F006C006F006700790020004C001A
:1002E0006100620073000000040309042E002B006B
:1002F000E1003100350000001E00140004001D0064
:100300000057E0001F001A0016001B002152E300F6
:100310002000080007000600E0002A002100150068
:1003200009001900E200E200220017000A0005009F
:1003300000004B0029004C000000290000004E0086
:1003400002522F00000021520000AE0023001C00CA
:100350000B0011000000A800240018000D00100080
:100360005000A90025000C000E00360051002C00A2
:10037000260012000F00370052002800270013004B
:10038000330034004F00AA002D003000E500380093
:1003900031000000290001000100010001000000FF
:1003A0003A001E0220022202010026783B001F02B2
:1003B00021022302010027783C002F0226022F0091
:1003C000010028783D0030022702300001000100C2
:1003D0003E0031023500350200000100010001003D
:1003E000000001000000007E01000100000001008B
:1003F000000001003F0052004A00240200000100FA
:10040000400024004E001E004A00297841002500CB
:100410004B001F004E000100420026004D0020004E
:100420004B000100430025022E0231004D00010067
:1004300044004500010001000100000035000100FA
:100440000100E0000C0000001E000100010001009E
:10045000250028001F0001000100010026002A00DD
:10046000200001000100010027002C0021000100F4
:100470000100010001000100220001000100010053
:100480000000230001001300000010000000240001
:10049000005205520000010000000100035201005B
:1004A000010001000000010053005F005C005900E2
:1004B00062000100540060005D005A000100570016
:1004C000550061005E005B006300010056005700AC
:1004D0005700580058000052007C01000100010044
:1004E0000100000001000100010001000100000006
:1004F0000100010001000100AD00E0000100010069
:10050000010001000100E200010001000100010002
:10051000E20001000100010001000100E300E3002E
:1005200001000100010001000000010001000100C4
:1005300000000100000001000100010000000100B6
:100540000000AE00010001000100010000000100F8
:100550000100010001000100010001000100010093
:100560000100010001000100010001000100010083
:100570000100010001000100010001000100010073
:100580000100010001000100010000000100010064
:1005900001000100005200000100D100CF00D10095
:1005A000010001000100CD00CE00D30001000100D8
:1005B0000100D200D000D2000100010001000100C2
:1005C0000100010001000100010001000100010023
:1005D0000000010001000100000001000000010016
:1005E0000100010000000100000001000100010005
:1005F000DB0001000000010001000100DA00010041
:100600000100010001000100D9000100010001000A
:1006100001000100DC0001000100010001000100F7
:1006200001000100010001000100010001000100C2
:1006300001000000010001000100010001000000B4
:1006400001000100010001000100010001000100A2
:100650001500010001000100010009001600010061
:10066000010001000100130017000100010001005A
:1006700001000A0007000100000001000100010064
:100680000000010000000100010001000000010065
:100690000000010001000D000B000E000000010031
:1006A00001000F001100010001000100010018000D
:1006B000080001000100010001001C000C00010005
:1006C00001000100010033001200010001000100DF
:1006D00001000100010001000100000011241FBE03
:1006E000CFEFDAE0DEBFCDBF11E0A0E0B1E0E0E3A4
:1006F000F3E402C005900D92AA37B107D9F722E0C2
:10070000AAE7B1E001C01D92A43BB207E1F70E9445
:10071000F60F0C9496210C9400008FE39CE901974E
:10072000F1F700C0000080917E01823019F484E06E
:100730000E94441A10927E010895FC01928191302A
:1007400039F4858182FD12C080FF10C092E00EC096
:10075000923039F4858182FD06C080FD06C093E0A9
:1007600005C096E003C095E001C094E090937E013F
:10077000923019F0933029F0089584E00E94511AC4
:10078000089580E10E941C1A0895A6E0B0E0EBEC09
:10079000F3E00C94CE1F26E0FC01DE0111960190DF
:1007A0000D922A95E1F7FC01258189819A81222306
:1007B00059F0662349F00E947719182F682F898114
:1007C0009A810E94E71903C00E94B319182F69810A
:1007D0007A81812F0E94CE142696E3E00C94EA1FC2
:1007E000109283010E94831A2FEF84E39CE0215032
:1007F00080409040E1F700C000009AE088E10FB629
:10080000F894A895809360000FBE90936000FFCF8E
:10081000ABE1B0E0EEE0F4E00C94CE1F4E8B5F8BCA
:10082000688F798F8A8F9B8F91111092A202CE01CF
:100830000F9627E0DC011D922A95E9F726E0FE01DC
:100840007696DC0101900D922A95E1F72B892223FF
:1008500019F061E00E94C50387E0FE013F96DE01CA
:10086000189601900D928A95E1F7CE0108960E94A4
:10087000F51681112CC087E0FE013896DE01119635
:1008800001900D928A95E1F76C85662301F1209124
:10089000110230E0C90101968770992740914A0200
:1008A00050E08417950761F16D8397E0929FD00126
:1008B000939FB00D1124AE5EBD4FFE0131960190A5
:1008C0000D929A95E1F7809311020E94921617E01B
:1008D00080914A0290911102891709F1189FC00175
:1008E00011248E5E9D4F0E94F5168823C1F08091E1
:1008F0004A0290E001968770992780934A02E8CFD8
:10090000109283010E94831A1092110210924A02DF
:10091000EAE0F2E087E0DF011D928A95E9F76B9645
:10092000E3E00C94EA1F982F92959F7019F0892F9D
:1009300024E001C020E0982F9695969511F02E5F47
:10094000892F982F969509F02F5F822F0895CF93C6
:10095000C82F0E94930456985E9825982D98269843
:100960002E9827982F9890E0FC013197E730F105F9
:10097000A8F4EA5AFF4F0C946220259A2D9A0EC0D3
:10098000259A2D9A269A2E9A09C0259A2D9A04C046
:10099000259A2D9A269A2E9A279A2F9A8C2FCF91A4
:1009A000089580E290E09093100180930F01809170
:1009B0007C0181110EC00E94DB1E81E080937C01CE
:1009C0002FEF83ED90E3215080409040E1F700C08D
:1009D000000060E570E080E40E94E11E9093100149
:1009E00080930F01892B09F04EC060E570E080E034
:1009F0000E94541F9093100180930F01892B09F0DE
:100A000042C060E570E080E00E94541F90931001A6
:100A100080930F01892BB9F560E570E08FE30E94A8
:100A2000541F9093100180930F01892B61F50E9450
:100A3000A71F60E570E080E40E94E11E9093100122
:100A400080930F01892BF9F460E570E08CE00E943F
:100A5000541F9093100180930F01892BA1F460E53E
:100A600070E080E00E94541F9093100180930F016A
:100A7000892B49F460E570E08FE30E94541F909346
:100A8000100180930F010E94A71F80910F0108950C
:100A9000CF93DF9356985E9825982D9826982E9898
:100AA00027982F98C8E8D0E08FEF90E0998388834B
:100AB000AAE8B0E011969C938E93ECE8F0E0918365
:100AC0008083259A2D9A2FEF80E792E02150804075
:100AD0009040E1F700C00000269A2E9A2FEF80E7A1
:100AE00092E0215080409040E1F700C00000279A3A
:100AF0002F9A2FEF80E792E0215080409040E1F75D
:100B000000C0000025982D982FEF80E792E021503B
:100B100080409040E1F700C0000026982E982FEF0B
:100B200080E792E0215080409040E1F700C0000053
:100B300027982F988091C40187702FEF829FC00162
:100B400011249595879595958795992799838883FD
:100B500011969C938E939183808356985E982598E6
:100B60002D9826982E9827982F98DF91CF91089549
:100B7000CF93E82F873080F580910F01909110017D
:100B8000892B09F047C0CE2F60E570E080E40E9419
:100B9000E11E9093100180930F01892BD1F460E541
:100BA00070E082E10E94541F9093100180930F0126
:100BB000892B79F481E090E001C0880FCA95EAF7AB
:100BC00060E570E080950E94541F9093100180931F
:100BD0000F010E94A71F1EC090E0FC013797E7306D
:100BE000F105C0F4E35AFF4F0C946220209A289834
:100BF00011C0219A29980EC0229A2A980BC0239AD4
:100C00002B9808C0529A5A9805C0539A5B9802C014
:100C10003E9A4698CF91089520982898219829982F
:100C200022982A9823982B9852985A9853985B9810
:100C30003E9846980895CF93873040F580910F01F4
:100C400090911001892B59F560E570E081E40E94D4
:100C5000E11E9093100180930F01892B11F0C0E0E9
:100C600011C080E590E00E94831F97FF05C090931C
:100C7000100180930F01F3CFC82FC095109210017F
:100C800010920F010E94A71F8C2F0AC09FB18FB135
:100C9000807F869586959370892B809501C080E032
:100CA000CF9108958098889A8198899A84988C9A8F
:100CB00085988D9A86988E9A87988F9A0895A0E243
:100CC000B0E0E5E6F6E00C94C61FFC012481222387
:100CD00009F4B7C37C0161E00E94C5038C01F701F0
:100CE0008581882319F18091A3029091A402009735
:100CF000E9F008171907D1F0992754E0880F991FD8
:100D00005A95E1F7FC01EA5EFE4F208124602083C2
:100D10008F5E9E4FFC01118300830E94281E10925B
:100D2000A20261E0C7010E94C5038C018091B1015C
:100D3000882399F0F7018581811102C087E001C005
:100D400086E08983F70180818A8381818B838EEF9E
:100D50008C83CE0101960E94CD0FF70125810115EC
:100D6000FEE71F07D1F5222309F498C09091C40132
:100D700081E0890F8770987F853020F4892B8093DC
:100D8000C40102C09093C4018091C40187702FEF09
:100D9000829FC001112495958795959587959927F0
:100DA000909389008093880090938B0080938A00B1
:100DB00090938D0080938C004091C4015091C501A7
:100DC0006091C6017091C7018FE090E00E942C20D5
:100DD0008091C9010E94A70461C0C80197558F3F47
:100DE000910511F008F05AC05801BB24C50134E048
:100DF000880F991F3A95E1F7AC014F5E5E4F6A018B
:100E0000FC01EA5EFE4F5F01808120FB80F9808358
:100E1000F7018581882341F10E941C1D9093E80110
:100E20008093E701F60182818F5F82839091A20215
:100E300080918301892B838380916C028483468116
:100E4000578166857785C6010E94051EF501808160
:100E500081FD03C0902F812F02C090E080E090932D
:100E6000A3028093A4021AC0FA01448555856685C1
:100E70007785C6010E94051EF501808181FF0EC0A5
:100E8000C6010E940B1E8091A3029091A402081734
:100E9000190721F41092A4021092A302F701858190
:100EA000882309F483C00330FCE71F0709F45DC001
:100EB00048F401154CE71407A9F001301C4709F468
:100EC0005AC074C00B358CE7180709F45EC00C35A6
:100ED0009CE7190709F451C00A351C4709F066C0A0
:100EE00081E054C0109283010E94831AFFEF24E333
:100EF0004CE0F15020404040E1F700C00000F89481
:100F000081E08093E00080E28093D8001092C900D5
:100F10008FE19EE40197F1F700C000001DBA109226
:100F200068001CBC10BE1FBA10927A0010926E00AE
:100F300010926F0010927100109272001092C9000E
:100F40001092BC0014B817B81AB81DB810BA109295
:100F5000BC0015B818B81BB81EB811BA0C94003FE5
:100F600080914B028770A9F46CC26FEF7FEF80E035
:100F700090E00E9438200E94F0038091810182FB62
:100F8000882780F991E0892701C080E00E947B16C4
:100F90000DC0F7018581882309F453C28091810136
:100FA00082FF4FC282E00E9464164BC2F701858126
:100FB00000811181882349F0C8010E947719D82E39
:100FC000682FC8010E94E71904C0C8010E94B31924
:100FD000D82EB8018D2D0E94CE140E94EB14D82E6D
:100FE000192FA82EF7010581C680C2949FE0C9225F
:100FF00080914B02877001F10023F1F0812F807FF7
:10100000803469F080E28D0D8830B0F0812F807ED1
:10101000803229F4F1E0FD1578F4CC2069F080915C
:10102000810182FF09C082E00E94641680914B0218
:101030008770BB24B3948111B12C912E92948FE0D0
:101040009822892D90E08C30910508F0D9C1FC01DF
:10105000EC59FF4F0C946220812F807F1F708823F2
:1010600011F01295107F0023B9F0112309F4B6C1D5
:1010700080E28D0D883010F0A11006C090918301A0
:10108000192B1093830105C09091A202192B109384
:10109000A2020E940F16A2C18D2D0E94991B11233E
:1010A00009F4AEC180E28D0D883088F1AA2079F173
:1010B00010959091A20219231093A2022BC0812FA8
:1010C000807F1F70803211F01295107F8D2DAA2025
:1010D00029F021E0A21609F44CC055C0809181018D
:1010E00082FD1BC0002369F0112339F09091830128
:1010F000192B109383010E940F1680E00E94FD1BA4
:101100007FC180E00E94991B112309F479C1812FCE
:101110000E9408160E940F1673C1002381F0CC2094
:10112000B1F141E0C4126CC190916C02812F89230E
:10113000181709F465C1192B10936C0261C1C11015
:101140005FC1812F0E94B01A80916C02912F982369
:1011500029F0912F9095892380936C0280917F01D3
:10116000912F982309F44CC11095812380937F011E
:1011700047C1002329F051E05C1508F441C107C0C4
:10118000C1103EC115C0002331F0C11027C1812F0D
:101190000E94B71A35C1CC2059F0893309F02DC10E
:1011A0008FEF97EEE3E081509040E040E1F723C1FC
:1011B000812F0E94B01A24C1812F86958695837055
:1011C00019F0813061F01CC1002321F08D2D912F89
:1011D000937002C080E090E00E94D31D17C10023ED
:1011E00021F08D2D912F937002C080E090E00E943D
:1011F000AE1D0CC1602F8D2D0E94C11A07C1812F19
:101200008370A9F5011100C14D2D42954695477097
:10121000440F440F8D2D8F7090E09C01042E01C06F
:10122000220F0A94EAF7D4FE08C08FE090E001C0D4
:10123000880F4A95EAF7809501C080E016951695CB
:101240001370123069F088F49091C801113019F0D0
:10125000822B892302C0922B892B0E945D1AD4C055
:10126000822B9091C8018927F8CF822BF6CF0023DB
:1012700019F0812F817001C08695882309F4C4C0BC
:101280004D2D429546954770440F440F8D2D8F701C
:1012900090E09C01042E01C0220F0A94EAF7D4FECC
:1012A00008C08FE090E001C0880F4A95EAF780956A
:1012B00001C080E0169516951370123059F078F43D
:1012C0009091C901113019F0822B892309C0922B0A
:1012D000892B06C0822B9091C901892701C0822BDE
:1012E0000E941C1A91C01F70002339F0812F0E94A8
:1012F000511A8D2D0E94B71A87C08D2D0E94B01AE9
:10130000812F0E94441A80C08D2DF2EFAF1671F12B
:10131000FA1538F020EFA21659F041EFA41609F1A2
:1013200059C053EFA51649F194EFA916B1F052C078
:10133000002371F0C11064C01F7181E090E0012EA4
:1013400001C0880F0A94EAF79091C901892720C04B
:10135000E1E0EC1508F454C0EFCF8091810182FDEB
:101360001AC0002329F0812F8F7127C00023D9F3E1
:10137000812F8F710E94441A43C0002341F01F71D6
:1013800081E0012E01C0880F0A94EAF701C080E0D5
:101390000E941C1A35C0002399F01F71812F0E94F2
:1013A000511A8091810182FF07C0F8E01F9FC001A0
:1013B0001124836080934B02812F0E94511A20C018
:1013C00081E00E94641621E02C15D0F482E00E9496
:1013D000641616C0002321F0CC2029F28D2D8ECE6C
:1013E000CC2031F2893349F44FEF57EE83E041507E
:1013F00050408040E1F700C000008D2D0E94991BF5
:1014000088EF890D843010F40E94F81DBB20A9F0EC
:1014100080914B0280FD11C0F7011582869586955B
:1014200086950E94511AC7010E945F0680914B0267
:101430008695869586950E94441A60E0C7010E94B1
:10144000C503A096EBE00C94E21F8091A90187FFF1
:1014500011C08091E80082FD05C08091B301811127
:10146000F8CF11C08091E8008B770BC08091B30159
:10147000882349F08091E80080FFF8CF8091E80050
:101480008E778093E8000895982F973068F59093B1
:10149000E900981739F07091EC002091ED0050911F
:1014A000F00003C0242F762F50E021FD02C09F5F83
:1014B000ECCF3091EB003E7F3093EB003091ED00AC
:1014C0003D7F3093ED003091EB0031603093EB00C5
:1014D0007093EC002093ED005093F0002091EE000B
:1014E00027FDE5CF80E008958F708093E90081E0CB
:1014F00008952091AF013091B0012617370748F0C9
:101500006115710539F42091E8002E772093E800E9
:1015100001C0B901FC0120E06115710579F18091EC
:10152000B3018823F1F18530F1F18091E80083FD6A
:101530003CC08091E80082FD2EC08091E80080FFD1
:10154000EBCF2091F3008091F20090E0922B611597
:10155000710551F08830910538F421912093F10004
:10156000615071090196F3CF21E0089709F020E05E
:101570008091E8008E778093E800CECF2111CFCF05
:101580000AC08091B301882361F0853061F08091B9
:10159000E80083FD0AC08091E80082FFF2CF80E07E
:1015A000089582E0089583E0089581E0089543E07E
:1015B00050E0BC0185E00E94C31C089545E050E066
:1015C000BC0182E00E94C31C0895CF93DF93EC011D
:1015D00080910601811105C048E050E0BE0181E024
:1015E0000BC08091800187FF03C040E285E002C00C
:1015F00048E081E050E0BE010E94C31C80E2FE0191
:10160000A6E8B1E001900D928A95E1F7DF91CF91C4
:101610000895AAE2B0E0EFE0FBE00C94CE1FE9EA07
:10162000F1E081EB91E02091F10021938E179F076B
:10163000D1F78091AA01833009F463C030F481307E
:1016400071F0823009F49FC0B6C08A3009F48BC0B3
:101650008B3009F46EC0893009F0ADC020C0809194
:10166000A901813A09F0A7C08091E800877F8093A3
:10167000E8008091AD019091AE01892B21F460E2E8
:1016800086E891E003C060E080E090E070E00E94B6
:10169000790A8091E8008B778093E8008CC0809174
:1016A000A901813209F087C08091AD019091AE010E
:1016B000009719F0039709F07EC08091E800877FBA
:1016C0008093E8008091E80082FD05C08091B3011D
:1016D0008111F8CF70C02091F3008091F20090E06A
:1016E000922B029731F48091F100813011F0863015
:1016F00021F48091F100809385018091E8008B773F
:1017000056C08091A901813A09F055C08091AD0180
:101710009091AE01892B09F04EC08091E800877F3F
:101720008093E8008091E80080FFFCCF8091060163
:1017300039C08091A9018132F1F58091AD0190917C
:10174000AE01892BC1F58091E800877F8093E80086
:101750000E94250A8091AB018093060110928301BB
:101760000E94831A28C08091A901813221F58091BD
:10177000E800877F8093E8000E94250A8091AC01F1
:101780008093840118C08091A901813AA1F48091CD
:10179000E800877F8093E8008091E80080FFFCCF1D
:1017A000809184018093F1008091E8008E7780938E
:1017B000E8000E94250A8091E80083FFE4C180913F
:1017C000A9019091AA01492F50E04A30510508F033
:1017D000DAC1FA01E059FF4F0C946220803821F001
:1017E000823809F0D0C108C08091A6019091A7016C
:1017F000992389F082600FC08091AD018F7087308E
:1018000008F0C1C18093E9008091EB0085FB882737
:1018100080F91092E9009091E800977F9093E8009A
:101820008093F1001092F10070C1282F2D7F09F0F4
:10183000AAC1882319F0823061F0A5C18091AB0163
:10184000813009F0A0C1933009F080E08093A701B6
:101850002EC08091AB0181112AC08091AD018F70A3
:101860002FEF280F263008F08EC18093E9002091D9
:10187000EB0020FF1CC0933021F48091EB008062CC
:1018800014C09091EB0090619093EB0021E030E068
:10189000A90102C0440F551F8A95E2F74093EA0060
:1018A0001092EA008091EB0088608093EB00109228
:1018B000E9008091E800877F8093E8000E94250A74
:1018C00062C1811160C11091AB011F778091E3006B
:1018D0008078812B8093E3008091E800877F80935C
:1018E000E8000E94250A8091E80080FFFCCF8091EB
:1018F000E30080688093E300111102C082E001C020
:1019000083E08093B3013FC18058823008F03BC12F
:101910002091AB013091AC012C3D53E0350779F5B6
:1019200083E08A838AE289834FB7F894DE011396B5
:1019300020E03EE051E2E32FF0E050935700E491C5
:1019400020FF03C0E295EF703F5FEF708E2F90E0B5
:10195000EA3010F0C79601C0C0968D939D932F5F1B
:10196000243149F74FBF8091E800877F8093E800DA
:101970006AE270E0CE0101960E94790AB4C08091BB
:10198000AD019091AE01432F552743305105A9F089
:1019900068F44130510509F405C14230510509F0A0
:1019A000F2C084E790E0E0E2F2E04BC04132510542
:1019B00029F14232510589F1E6C0C90199278130E8
:1019C0009105A1F058F0029709F0DDC0E6EAF2E0D7
:1019D000E4918E2F90E0E6EAF2E030C0E8EEF2E02B
:1019E000E4918E2F90E0E8EEF2E028C0EEEBF2E01A
:1019F000E4918E2F90E0EEEBF2E020C08430910570
:101A000008F0C1C0880F991FFC01E35DFE4F0190F3
:101A1000F081E02D89E090E014C08430910508F059
:101A2000B2C0FC01EE0FFF1FEB5DFE4F0190F08195
:101A3000E02DDC01AF5DBE4F8C9190E0009709F482
:101A4000A2C02091E800277F2093E8002091AF01F9
:101A50003091B0012817390708F4C90140E0009718
:101A600089F12091B301222309F43DC02530D9F139
:101A70002091E80023FD37C02091E80022FD2FC00F
:101A80002091E80020FFEBCF4091F3002091F2007D
:101A900030E0342B009759F02830310540F4449160
:101AA0004093F100319601972F5F3F4FF3CF41E014
:101AB0002830310509F040E02091E8002E7720938E
:101AC000E800CDCF4111CDCF0AC08091B30188236A
:101AD00051F0853041F08091E80083FD04C0809191
:101AE000E80082FFF2CF8091E8008B778093E800D6
:101AF0004AC0803809F047C08091E800877F809312
:101B0000E8008091A8018093F1008091E8008E7731
:101B1000D3CE811138C08091AB019091AC0199274F
:101B200002978CF58091E800877F8093E800109100
:101B3000AB011093A8010E94250A111106C08091E3
:101B4000E30087FD02C081E001C084E08093B3011F
:101B500042E061EC81E00E94440A42E061EC82E0F4
:101B60000E94440A42E261EC85E00E94440A42E29B
:101B700061EC83E00E94440A42E260EC84E00E944F
:101B8000440A8091B3018091E80083FF10C08091E6
:101B9000E800877F8093E8008091EB00806280936B
:101BA000EB0005C082E190E0E4E9F2E04ACFAA96BA
:101BB000E3E00C94EA1F1F920F920FB60F921124CC
:101BC0002F933F934F935F936F937F938F939F9345
:101BD000AF93BF93CF93DF93EF93FF93C091E9004F
:101BE000CF708091EC00D82FD17080FDD0E810929A
:101BF000E9008091F000877F8093F00078940E9444
:101C0000090B1092E9008091F00088608093F00049
:101C1000CD2BCF70C093E900FF91EF91DF91CF9171
:101C2000BF91AF919F918F917F916F915F914F91F4
:101C30003F912F910F900FBE0F901F901895E8EDD8
:101C4000F0E080818E7F80831092E2001092DA00B3
:101C50001092E100A0EEB0E08C9181608C938081C5
:101C60008F77808319BCA7EDB0E08C918E7F8C9329
:101C700080818F7E8083109282010895A0E0B0E081
:101C8000E4E4FEE00C94C91FC8EDD0E088818F7EAB
:101C90008883E7EDF0E080818160808384E082BF0B
:101CA00081E08093820188818E7F888302EE10E03C
:101CB000F80110821092DA0081EEC82ED12CF601C4
:101CC000108288818F778883888180688883888163
:101CD0008F7D888319BC1092B3011092A8011092D5
:101CE000A7011092A60190EEE92EF12CF701808158
:101CF0008B7F808388818160888342E060E080E020
:101D00000E94440AF60180818E7F8083F8018081E1
:101D100081608083808188608083F70180818E7FED
:101D20008083888180618883CDB7DEB7E8E00C943A
:101D3000E51F1F920F920FB60F9211242F933F931E
:101D40004F935F936F937F938F939F93AF93BF93C3
:101D5000EF93FF938091E10082FF09C08091E20040
:101D600082FF05C08091E1008B7F8093E10080912C
:101D7000DA0080FF2AC08091D80080FF26C08091C1
:101D8000DA008E7F8093DA008091D90080FF18C03E
:101D900080E189BD82E189BD09B400FEFDCF81E00B
:101DA0008093B3018091820181110FC00E941F0EA8
:101DB0000E943E0E8091E20084608093E20005C0A4
:101DC00019BC1092B301109282018091E10080FF52
:101DD00017C08091E20080FF13C08091E2008E7FE7
:101DE0008093E2008091E20080618093E200809124
:101DF000D80080628093D80019BC85E08093B3013D
:101E00008091E10084FF30C08091E20084FF2CC00B
:101E100080E189BD82E189BD09B400FEFDCF8091DA
:101E2000D8008F7D8093D8008091E1008F7E8093D1
:101E3000E1008091E2008F7E8093E2008091E200D9
:101E400081608093E2008091A801882311F084E0F2
:101E500007C08091E30087FD02C081E001C083E0FC
:101E60008093B3018091B3018091E10083FF27C08B
:101E70008091E20083FF23C08091E100877F8093FF
:101E8000E10082E08093B3011092A8018091E1000B
:101E90008E7F8093E1008091E2008E7F8093E2004C
:101EA0008091E20080618093E20042E060E080E0A7
:101EB0000E94440A8091F00088608093F000FF91B6
:101EC000EF91BF91AF919F918F917F916F915F91B2
:101ED0004F913F912F910F900FBE0F901F9018952B
:101EE0002091E4003091E50095E64091EC00842FCC
:101EF000817040FF23C08091E80080FD1DC080916B
:101F0000B301882399F0853099F08091EB0085FD2D
:101F100011C04091E4005091E5002417350729F3E2
:101F2000915011F09A01E1CF84E0089582E0089584
:101F300083E0089581E0089580E008954091E800ED
:101F400042FFDDCF0895EF92FF920F931F93CF933F
:101F5000DF937C018B010E94700F811119C0E70192
:101F600001151105A1F08091E80085FD0AC080915E
:101F7000E8008E778093E8000E94700F882381F339
:101F800007C089918093F10001501109E9CF80E0E9
:101F9000CDB7DEB7E6E00C94E71FCF932091B301F5
:101FA000243011F5C091E900CF703091EC00232F5F
:101FB000217030FD20E8C22B23E02093E90020911E
:101FC000E80020FF0EC040E050E060E270E00E94B8
:101FD000A30F81111092B1018091E8008E77809358
:101FE000E800CF70C093E900CF910895A6E4B0E077
:101FF000ECEFFFE00C94C31F85B7806885BF85B701
:10200000806885BF84B7877F84BF0FB6F894A89592
:1020100080916000886180936000109260000FBE24
:1020200090E080E80FB6F89480936100909361008F
:102030000FBE81EC93E190937B0180937A010E9423
:102040001F0E0E943E0E8091E20084608093E200A9
:1020500078948091B3018823A1F01091E9001F705A
:102060009091EC00892F817090FD80E8182B1092E0
:10207000E9008091E80083FD0E94090B1F70109316
:10208000E90082E084BD93E095BD9AEF97BD80930F
:102090006E000E94D10490E09093100180930F0194
:1020A0000E940C060E945206E6EBF1E0AAECB1E0B9
:1020B00011921D9221E0E43CF207D1F78EE090E00E
:1020C0000E9468208093B4019093B501FC010E96A4
:1020D00011928E179F07E1F789EA8093800089E0CB
:1020E0008093810024982C983F988AB18F7C8AB97C
:1020F0006E98479A8BB180638BB9769A8FE090E0A7
:102100000E94FE1F6093C4017093C5018093C601B5
:102110009093C70167708FEF689FB0011124759588
:102120006795759567957727709389006093880008
:1021300070938B0060938A0070938D0060938C0085
:102140000E94480580E090E00E940420863E9E4F59
:1021500009F472C066EE7EEF80E090E00E943820C5
:1021600060E082E090E00E941A2060E083E090E06E
:102170000E941A201092C80160E074E184E090E0AF
:102180000E94382060E086E090E00E941A206FEF05
:1021900087E090E00E941A2040E050E0BA0188E019
:1021A00090E00E942C2060E084E290E00E941A20DF
:1021B00060E087E190E00E941A2060E08CE090E00F
:1021C0000E941A2060E08DE090E00E941A2019829F
:1021D0001A821B821C821D821E821F82188648E082
:1021E00050E068E170E0CE0101960E940A2040E0D4
:1021F00050E0BA0180E290E00E942C201092C401CD
:102200001092C5011092C6011092C70184E080931C
:10221000C4014091C4015091C5016091C601709103
:10222000C7018FE090E00E942C2040E050E0BA010E
:1022300083E190E00E942C2082E090E00E94F61F53
:102240008093D80184E090E00E9404209093810163
:102250008093800183E090E00E94F61F0E945D1A47
:102260008091C9010E94A70487E091E09093A802A1
:102270008093A70208E110E08091B301853009F056
:102280005AC050E4B52E68EDE62E61E0F62E70E1FE
:10229000C72EE2E1DE2E8091B301853009F045C002
:1022A0008091B301843009F11092AB020FB6F8941B
:1022B000A895009360000FBEB092600083B7817F45
:1022C000846083BF83B7816083BF7894889583B728
:1022D0008E7F83BF0FB6F894A895809160008861C7
:1022E00080936000109260000FBE8091A701882348
:1022F00091F20E94D10490E09093100180930F011D
:102300000E940C060E945206EAECF1E01192EE16D1
:10231000FF06E1F70E947C18EAECF1E0819181115F
:102320000FC2EE16FF06D1F7B6CF109283010E94BE
:10233000831A0E94F81D0E947C1849EDC42E41E0CA
:10234000D42EAAECB1E0F60191918D91892721E07C
:10235000E73EF20719F08823B9F305C0811103C0E5
:102360000E94531955C03AEC832E31E0932EF12C84
:10237000F40171904F01F601A080A724B9F1E12C7E
:10238000BB24B394662463948A2D8B2141F1229659
:10239000EFAE22972396FFAE23970E941C1D259631
:1023A0009FAF8EAF259726966FAE269791E0872D2B
:1023B0008B2109F490E027969FAF279722964FAD87
:1023C000229723965FAD239724966FAD2497259689
:1023D0007FAD259726968FAD26970E940804E3943B
:1023E000BB0CF6E0EF12D0CFF6017082F394FFEF52
:1023F000CF1ADF0A2EE0F212BBCF8FB7F8944091CC
:10240000AC025091AD026091AE027091AF028FBFED
:102410008091A3029091A402892BE9F08091E701B9
:102420009091E8010E940D1D893C9105A0F08091DA
:10243000A3029091A402992724E0880F991F2A955E
:10244000E1F7FC01EA5EFE4F208122FD04C08F5EB1
:102450009E4F0E94281EB0909D02C0909E02F09058
:102460009F02D090A002E090A10210929E021092D2
:102470009F021092A0021092A102C11003C0FF207F
:1024800009F447C080919B0290919C020E940D1D0F
:102490009C0190919602992309F46AC12531310576
:1024A000C0F19F3F19F09F5F90939602CC2061F09E
:1024B0000E94AA1E1C1414F491E001C09FEF899F92
:1024C000802D112480939E02FF2061F00E94AA1E9D
:1024D0001F1414F09FEF01C091E0899F802D1124FB
:1024E00080939F0280919E02882399F0A0909F0282
:1024F000AA2079F00E94CD1E811101C081E0809355
:102500009E028A2D0E94CD1E811101C081E0809320
:102510009F02D11003C0EE2009F447C080919902B8
:1025200090919A020E940D1D9C019091970299230F
:1025300009F422C125313105C0F19F3F19F09F5F99
:1025400090939702DD2061F00E948A1E1D1414F4FE
:1025500091E001C09FEF899F802D11248093A002FC
:10256000EE2061F00E948A1E1E1414F09FEF01C03D
:1025700091E0899F802D11248093A1028091A00277
:10258000882399F0A090A102AA2079F00E94CD1E84
:10259000811101C081E08093A0028A2D0E94CD1E8E
:1025A000811101C081E08093A10280919D028B1175
:1025B0001AC080919E02882311F08C1114C0809162
:1025C0009F02882311F0F8120EC08091A102882387
:1025D00011F0E81208C09091A002992331F081E037
:1025E000D91204C002C081E001C080E080FD15C0A6
:1025F00080919E0281110FC080919F0281110BC0BA
:102600008091A002811107C081E09091A1029111F7
:1026100003C080E001C081E080FD0E94631EB09293
:102620009D02C0929E02F0929F02D092A002E09280
:10263000A1020E94F81D9091E901891769F0809329
:10264000E9018FB7F8944091AC025091AD026091CE
:10265000AE027091AF028FBF8091B301843009F058
:102660000BCE8093E9008091E80082FF05CE809137
:10267000E80085FF24C00E94700F81111EC080E217
:10268000E82EF12C6E0181E2C80ED11C09C08091A8
:10269000F100F60181936F01F1E0EF1AF10869F0A2
:1026A0008091E80085FDF3CF8091E8008B778093DF
:1026B000E8000E94700F882399F391E001C090E038
:1026C0008091E8008B778093E800992309F4D4CDBA
:1026D000E9A18E2F90E08930910570F5FC01E65854
:1026E000FF4F0C94622019828CE0E5E3F1E0DE01FB
:1026F000129601900D928A95E1F78EEF8D8707C0B3
:1027000081E08093B10184E089838EEF8A83CE01DA
:1027100001960E94CD0FB0CD8091B101882309F4BC
:10272000ABCD80E00E941C1A8AA10E94511AA4CD50
:1027300085E003C084E001C08FEF0E94521E9CCD53
:10274000C9BCD9BC09B400FEFDCF8091D8008F7DF3
:102750008093D8008091E00082608093E0008091B7
:10276000E00081FDFCCF109283010E94831A93CD7B
:10277000232B09F098CECDCE2139314008F0DFCEA1
:1027800014CF80E008959091800192FF10C041E045
:10279000282F2471243009F040E031E0282F2871DF
:1027A000283009F030E0431711F02CE0822793FF26
:1027B00010C041E0282F2471243109F040E031E0BD
:1027C000282F2871283109F030E0431711F02CE050
:1027D00082273091810130FF10C051E0282F2171F4
:1027E000213009F050E041E0282F2871283009F00D
:1027F00040E0541711F029E0822731FF10C041E07A
:10280000282F2171213109F040E031E0282F287173
:10281000283109F030E0431711F029E0822794FDB8
:10282000877E08958238910569F1B0F4813391056E
:1028300009F475C048F48932910509F467C08A32F9
:10284000910509F471C008958533910509F459C0C3
:1028500089339105B9F00895833E910589F138F4E3
:10286000803E9105D1F0823E910529F10895863E82
:102870009105C9F1873E9105D9F1843E910509F092
:102880006CC027C02091800120FD57C021FD55C09C
:102890002091810123FD5BC008958091800180FD1E
:1028A00048C08091810180FF48C08091800184FDF3
:1028B00046C083EE51C08091800182FF3CC0F5CFBD
:1028C0008091800182FD37C08091810180FD35C0FB
:1028D000ECCF8091810181FF36C08091800184FD21
:1028E0002EC087EE39C08091800183FF2AC0F5CFCA
:1028F0008091800183FD25C08091810181FD23C0ED
:10290000ECCF8091800185FD22C01FC080918001A5
:1029100085FD1BC08091810183FF19C00AC0809191
:10292000800186FD16C017C08091800186FD13C00E
:1029300010C089E311C082EE0FC080EE0DC080E0B0
:102940000BC086EE09C084EE07C085E305C089E2AE
:1029500003C08AE201C081E390E0089520914A0219
:102960009091110257E02917A9F030E0529FF00131
:10297000539FF00D1124EE5EFD4F7181761306C05A
:102980007081781303C07581741306C02F5F3F4FA9
:102990002770E9CF80E0089581E008957E30B0F49B
:1029A0006630A0F48630A0F494E5899FF0011124EC
:1029B00086E0789FE00DF11D1124E60FF11DEE0F6A
:1029C000FF1FE451FD4F85919491089580E001C06F
:1029D00081E090E008951F93CF93DF930E9412143B
:1029E000EC01C11580E5D807E8F5C11590E4D907D9
:1029F00008F0A8C0C03ED10530F5CD3CD10508F0A7
:102A000094C0C83AD10578F4C53AD10508F083C01E
:102A1000C130D10509F47CC008F4F2C0C430D1053E
:102A200008F0F1C0EDC0C33CD10508F0E9C0C85AB8
:102A3000D0E0CC0FDD1FCC5BDE4F0990D881C02DDC
:102A4000CE019464E1C0C11580E2D80708F0CBC084
:102A5000C11591E0D90708F06BC0C83ED10508F454
:102A6000D2C0CEC0C03682E5D80728F5C03492E582
:102A7000D90708F079C0C03282E5D80708F06CC0E9
:102A8000C11592E5D90708F481C04C2F46954695AB
:102A900080E2489FA0011124C37021E030E0C90109
:102AA00002C0880F991FCA95E2F7EA01C82BD92BFB
:102AB000CE019D68A9C0C03A82E5D807B8F48C2F32
:102AC0008F71C03892E5D90708F07BC0869586954E
:102AD00090E2899F90011124C37081E090E002C0D0
:102AE000880F991FCA95E2F79A6868C0C03C82E5D2
:102AF000D80708F46DC0C03E92E5D90708F080C041
:102B0000CF71DD27DC2FCC27CE01806F906A7CC08F
:102B100081E090E079C0C55AD0E0CF5BDE4F88817C
:102B2000C82FD0E0CE0190646FC0CE0190656CC01C
:102B30008D2F0E94C313182FCE0199270E941214C3
:102B40001F715CC0CE0199270E941214CC27DF7040
:102B5000D06A8C2B9D2B58C0CF71D0E0DC2FCC27B6
:102B6000CE01816F906A50C08C2F8F7186958695AB
:102B700090E2899F90011124C37081E090E002C02F
:102B8000880F991FCA95E2F79C6818C08C2F8F7127
:102B90000E94C31395E0D695C7959A95E1F7CF703B
:102BA000D0E0DC2FCC27282F30E084FF05C084E064
:102BB000220F331F8A95E1F7D069CE01822B932B28
:102BC00023C090E0D82FCC27CE01846F906A1CC020
:102BD0008C2F8F710E94C3138F7190E0D82FCC2758
:102BE000CE01906211C08D2F8F710E94C313182FD8
:102BF000CE0199270E9412141F719062912B04C07C
:102C000080E090E001C0CE01DF91CF911F91089547
:102C100080959091830189238093830108959091F9
:102C200083018091A202982B9093EA0180916C021B
:102C30008823D9F0892B8093EA01809106018823AB
:102C400031F08091800187FF02C08EE101C086E0F3
:102C5000ECEEF1E090E0815028F021912223D9F3AD
:102C60009F5FF9CF911110926C0240E250E06CE44A
:102C700072E08AEE91E00E948921892B21F180E2A5
:102C8000EAEEF1E0ACE4B2E001900D928A95E1F752
:102C9000E091A702F091A8023097A9F08091060177
:102CA000882359F08091800187FF07C08091EA0155
:102CB0008093EB0186E08093EA010280F381E02DAE
:102CC0008AEE91E00995089590914B0280958923B1
:102CD00080934B02282F277069F4981759F0909130
:102CE000810192FF07C08695869586950E94441AB9
:102CF00010924B0208959091810192FB222720F9B6
:102D0000281779F080FB92F99093810160918001FE
:102D10007091810184E090E00E94382082E00E945E
:102D20006416089580914A0290911102891719F052
:102D30008F5F8770FBCF0895CF93DF938091100250
:102D400082958F7009F04EC080910F02882309F49C
:102D500049C080914A024091110250910B0260914A
:102D60000A02C0910C02D0910D0277E08417D1F1D4
:102D700090E0789FF001799FF00D1124DF01AE5EA5
:102D8000BD4F14962C911497222349F111962C9142
:102D90001197251324C02C91261321C015962C9130
:102DA000159721111CC012962D913C9113972C1B45
:102DB0003D0B283C310598F4809110028F708061A2
:102DC00080931002E85EFD4F80818F708061808368
:102DD0008AE092E00E945F060E94921603C001966C
:102DE0008770C4CFDF91CF910895A4E1B0E0EBEFFD
:102DF000F6E10C94C51F8C0186E0F801DE011F96F8
:102E000001900D928A95E1F7F8018481E5809AE0BE
:102E1000892E92E0992E90910E02911120C0882364
:102E200009F463C1EE2009F442C0C8010E94601A8F
:102E3000F82E8823E1F187E0F801D40101900D928A
:102E40008A95E1F780910E02813031F480910A0277
:102E500090910B020E94A6190E949C1648C1F8018D
:102E6000D080C180A280B380F0900F0220910C022C
:102E700030910D02FF2009F4E7C0A501421B530B5E
:102E8000483C510508F09DC0882309F430C1809169
:102E90001002282F207F90910B02222361F09C15B5
:102EA00009F460C0C8010E94601A811163C0C801A2
:102EB0000E945F061AC19C1113C090910A029D11D5
:102EC0000FC0E1100DC08F708061809310028AE006
:102ED00092E00E945F0680911002F801868303C190
:102EE000E1103AC040E06C2D8D2D0E94AE1440E000
:102EF0006C2D8D2D0E94AE14E82E8111F4C0DF865A
:102F0000C88A8F8598890E94A619292F22952F702B
:102F1000243020F49F70223028F009C02A5022303B
:102F200080F014C0992349F0811107C013C0992380
:102F300021F0F8019681907F69F0805E883030F44E
:102F400009C0803F38F0815F833020F0C8010E94C3
:102F50005F06EF2CFE2CCBC0809110028160809325
:102F60001002C1C090910A029D119CCFE1109ACF2E
:102F7000F80198C0EE2009F49ACF20911002822F18
:102F800082958F7090E002978CF080910A02909168
:102F90000B0299878887BB86AA8680910E028C8750
:102FA0001D862E87CE0108960E945F0687E0F801F5
:102FB000AAE0B2E001900D928A95E1F70E949C167A
:102FC00094C090911002292F207F51F48AE092E062
:102FD0000E945F0687E0F40111928A95E9F783C0A9
:102FE000882309F484C080910B028C110CC080915D
:102FF0000A028D1108C0E11006C0F8019683C801CD
:103000000E945F066AC0C8010E94601A882309F402
:103010004ECFEE2009F44BCF20911002822F8295E3
:103020008F7090E0029714F280910A0290910B0247
:103030009A838983BC82AB8280910E028D831E822B
:103040002F83CE010196B0CFA21AB30AF8ECAF16C7
:10305000B10408F042C0882309F447C0FE2CEE20DA
:1030600009F425CF80910B028C1129C080910A02AE
:103070008D1125C09091100290FD18C0892F829566
:103080008F70282F30E02115310581F0F8019683EB
:103090002F30310541F08F5F982F9295907F868178
:1030A0008F70892B8683C8010E945F0687E0F80134
:1030B000AAE0B2E001900D928A95E1F718C0C8012C
:1030C0000E94601A811172CF8091100281608093FA
:1030D0001002C8010E945F060AC087E0F401119245
:1030E0008A95E9F704C0F12C02C0FF24F3948F2DD8
:1030F0006496ECE00C94E11FA0E0B0E0E2E8F8E1B7
:103100000C94C91F80910F0190911001892B91F0AF
:1031100080916F028F5F80936F0281110BC00E94BC
:10312000D10490E09093100180930F01892B11F44A
:103130000E94480506EB11E07801D0E0C0E087E08E
:10314000C82ECC0E8C2F0E94B8058C2D0E94B8057D
:103150008C2F0E941B068F73F7019081891721F035
:103160008083DD24D39401C0D12C8C2D0E941B06BA
:103170008F73F7019781891719F0878381E001C068
:1031800080E0D82ADD290E940C06CF5FFFEFEF1AFE
:10319000FF0AC730A1F610927402C0917302CC23CB
:1031A00009F47DC00E941C1D2091710230917202B1
:1031B000AC01421B530B9A019093720280937102EF
:1031C0004F3F510509F018F4452B19F102C02FEFBC
:1031D00030E01092730210927002E091B401F0910D
:1031E000B501AF01425F5F4F90E030E080818823FE
:1031F00041F0281718F010829C2F03C0821B808397
:103200003C2F3196E417F50789F7309373029093BA
:103210007002DD23B1F110927002E091B401F091DF
:10322000B5018091740290917302AAECB1E0AF01F4
:10323000425F5F4F6EE1E80128813C91321779F0DF
:10324000308131110CC060832C9398819227282FF4
:1032500030E0292B81E0232B09F480E091E03196C6
:1032600011960F5F1F4FE417F50729F7809374023B
:103270009093730280917402CDB7DEB7E8E00C94AE
:10328000E51F81E0909170029923A1F38111C3CFD2
:103290000E941C1D9093720280937102BCCFD111C9
:1032A000F7CF80E0EFCFA6E0B0E0E9E5F9E10C94DC
:1032B000CD1F0E941C1D8C0180916D0290916E02A9
:1032C0000817190781F019821A820E941C1D682FA5
:1032D00049815A81792F80E090E00E940804109380
:1032E0006E0200936D022696E4E00C94E91FCF92E3
:1032F000DF92FF920F931F93CF93DF936C010091A6
:10330000C9018091C801082BC7E0D0E010E0C801D6
:103310000C2E02C0959587950A94E2F780FD04C0B3
:103320002197A8F7F12C09C0FC2EB6018C2F0E9422
:10333000CE140E94EB14019799F38F2DDF91CF915A
:103340001F910F91FF90DF90CF900895CF93DF935F
:10335000EC010E947719BE010E94CE140E94EB146A
:10336000DF91CF910895292F9E3078F5863068F54A
:1033700090E036E0239F800D911D1124682F677027
:1033800023E0969587952A95E1F7FC01EE0FFF1F44
:10339000E80FF91FEB58FD4F40E050E080E021912D
:1033A00030E0062E02C0369527950A94E2F7217088
:1033B0003327042E01C0220F0A94EAF7822B4F5FB5
:1033C0005F4F4330510559F7089580E00895292F44
:1033D0009E3088F5863078F590E036E0239F800DAA
:1033E000911D1124282F277051E001C0550F2A95F7
:1033F000EAF723E0969587952A95E1F7FC01EE0F11
:10340000FF1FE80FF91FEB58FD4F20E030E070E0A0
:103410004081CB01022E02C0969587950A94E2F76F
:103420008170819584278523842781932F5F3F4F67
:103430002330310569F70895A0E2B0E0E2E2FAE155
:103440000C94CE1F0E94A704182F8091B1018823ED
:10345000A9F02FEF80E792E0215080409040E1F703
:1034600000C0000085E08983812F0E9493048A8335
:103470008EEF8B83CE0101960E94CD0F1093C90170
:10348000A096E3E00C94EA1F21E030E001C0220F97
:103490008A95EAF720958091C90182230E941C1A1F
:1034A000089521E030E001C0220F8A95EAF780916B
:1034B000C901822B0E941C1A08958093C8010895A7
:1034C000FC0124812223D9F0808191810E94A619D8
:1034D00092959F70963079F010F4925001C09A50F6
:1034E000923068F4803F69F018F4883E40F409C0D7
:1034F000843F29F406C0883E20F0813F11F080E02F
:10350000089581E0089580910601882331F080912B
:10351000800187FF02C08EE101C086E0ECEEF1E0A1
:10352000DF011D928A95E9F780E090E00E94D31DAB
:1035300080E090E00E94AE1D1092A2020E940F1641
:10354000EDE9F2E085E0DF011D928A95E9F710923E
:10355000960210929702109298020E94631E08959C
:10356000882321F00E9408160E940F1608958823D0
:1035700039F090918301892B809383010E940F166B
:103580000895662309F45CC08D3C21F40E94AA1EB4
:10359000819504C08E3C29F40E94AA1E80939F024C
:1035A000C5C08F3C21F40E94AA1E819504C0803DB5
:1035B00029F40E94AA1E80939E02B8C0893D19F486
:1035C0000E948A1E05C08A3D31F40E948A1E8195A0
:1035D0008093A002ABC08B3D21F40E948A1E81958E
:1035E00004C08C3D29F40E948A1E8093A1029EC0D3
:1035F0009FE2980F983078F421E030E0A90102C0F2
:10360000440F551F9A95E2F7CA0190919D02892BAC
:1036100080939D028BC08D3D21F480919802816042
:103620000CC08E3D21F480919802826006C08F3DCF
:1036300009F07CC08091980284608093980276C0E3
:103640008D3C39F490919F0297FF35C010929F02F4
:1036500059C08E3C29F490919F021916BCF32BC0DF
:1036600090919E028F3C29F497FF25C010929E02F4
:1036700049C0803D19F41916CCF31DC09091A002E9
:10368000893D29F41916BCF41092A0023BC08A3D72
:1036900019F497FF10C0F8CF8B3D39F49091A10237
:1036A00097FF09C01092A1022DC08C3D21F490918A
:1036B000A1021916BCF39FE2980F983080F421E024
:1036C00030E0A90102C0440F551F9A95E2F7CA01E4
:1036D000809590919D02892380939D0213C08D3D1A
:1036E00021F4809198028E7F0BC08E3D21F4809151
:1036F00098028D7F05C08F3D29F4809198028B7FC1
:103700008093980280919E02811106C080919F0251
:10371000811102C0109296028091A002811106C010
:103720008091A102811102C0109297020E94631E33
:103730000895882309F460C0823869F40E94F81D56
:1037400081FF5AC069E38AEE91E00E94791D0E94D0
:103750000F1669E30EC0833899F40E94F81D80FFAC
:103760004BC063E58AEE91E00E94791D0E940F161E
:1037700063E58AEE91E00E94511D0E940F160895A4
:10378000843869F40E94F81D82FF36C067E48AEE2F
:1037900091E00E94791D0E940F1667E4EACF9CEF2A
:1037A000980F913A10F4682FE4CF90E2980F983078
:1037B00050F4877091E001C0990F8A95EAF7892F3C
:1037C0000E940816DACF9BE5980F933028F480E02A
:1037D00090E00E94D31D089598E5980F9B3128F43E
:1037E00080E090E00E94AE1D089593E3980F93311E
:1037F00018F460E00E94C11A0895CF93882309F459
:10380000BDC0C82F8238B1F40E94F81D81FDB6C03A
:1038100069E38AEE91E00E94791D0E940F162FEF56
:1038200087EE93E0215080409040E1F700C0000017
:1038300069E317C08338E1F40E94F81D80FD9EC043
:1038400063E58AEE91E00E94791D0E940F162FEF2A
:1038500081EE94E0215080409040E1F700C00000EC
:1038600063E58AEE91E00E94511D0E940F1686C00A
:103870008438B1F40E94F81D82FD80C067E48AEEAE
:1038800091E00E94791D0E940F162FEF81EE94E0C7
:10389000215080409040E1F700C0000067E4E1CF94
:1038A0008CEF8C0F813AB8F5809106018823E1F006
:1038B0008091800187FF18C0EC2FE695E695E6958C
:1038C000F0E0E651FE4F8281282F30E04C2F477008
:1038D00081E090E002C0880F991F4A95E2F78223A9
:1038E0009323892B59F411C0ECEEF1E08191C817B4
:1038F00029F021E0E23FF207C9F707C06C2F8AEEFA
:1039000091E00E94511D0E940F166C2F8AEE91E0EB
:103910000E94791DAACF80E28C0F883068F4C770AE
:1039200081E090E001C0880FCA95EAF79091830189
:10393000892B8093830199CFEBE5EC0FE33040F4C2
:10394000F0E0EF5BFE4F808190E00E94D31D16C037
:10395000E8E5EC0FEB3150F4F0E0EE0FFF1FEC5B0D
:10396000FE4F808191810E94AE1D08C083E38C0FC1
:10397000833120F461E08C2F0E94C11ACF91089509
:103980008091850108959B019091B3019430F1F4E9
:103990008F708093E9008FEF9091E800815095FD42
:1039A00006C095ED9A95F1F700008111F5CF809151
:1039B000E80085FF0BC0BA01C90140E050E00E9459
:1039C000A30F8091E8008E778093E80008957894A3
:1039D0001F920F920FB60F9211248F939F93AF9364
:1039E000BF938091AC029091AD02A091AE02B091D4
:1039F000AF020196A11DB11D8093AC029093AD0260
:103A0000A093AE02B093AF02BF91AF919F918F91FF
:103A10000F900FBE0F901F9018959C014FB7F89410
:103A20008091AC029091AD02A091AE02B091AF0234
:103A30004FBF821B930B08952FB7F8948091AC026F
:103A40009091AD02A091AE02B091AF022FBF089548
:103A50001F920F920FB60F9211248F939F93AF93E3
:103A6000BF938091AB02811113C08091AC02909101
:103A7000AD02A091AE02B091AF024196A11DB11D61
:103A80008093AC029093AD02A093AE02B093AF02CC
:103A9000BF91AF919F918F910F900FBE0F901F908C
:103AA0001895209106012223C9F02091800127FF5B
:103AB00015C0262F2695269526952E31C8F4FC0193
:103AC000E20FF11D677081E090E001C0880F6A95F8
:103AD000EAF780959281892382830895FC010696F6
:103AE0002281621301C012823196E817F907C1F7EB
:103AF0000895209106012223C1F02091800127FF23
:103B000014C0262F2695269526952E3130F5FC01DA
:103B1000E20FF11D677081E090E001C0880F6A95A7
:103B2000EAF79281892B82830895FC0132962FEF68
:103B300030E04191641789F02F3F19F4411101C021
:103B4000232F3F5F3630A9F72F3F39F0FC01E20FFA
:103B5000F11D27FDFA95628308950895A3E0B0E072
:103B6000E4EBFDE10C94CF1F2091A9023091AA0251
:103B700028173907A1F09093AA028093A902E09137
:103B8000A702F091A802309751F024E029839B838B
:103B90008A830680F781E02DCE0101960995239650
:103BA000E2E00C94EB1FA3E0B0E0E9EDFDE10C9442
:103BB000CF1F2091A5023091A60228173907A1F046
:103BC0009093A6028093A502E091A702F091A8022B
:103BD000309751F023E029839B838A830680F78105
:103BE000E02DCE01019609952396E2E00C94EB1F9F
:103BF000E091A702F091A802309729F00190F0819E
:103C0000E02D0995089580E008954115510511F0C2
:103C1000FA0109950895CF93DF93EC014A855B85FE
:103C20006E857F850E94051E8B8180959091A202F2
:103C300089238093A2028C810E9408160E940F168D
:103C400086E0FE0111928A95E9F7DF91CF91089500
:103C5000CF93DF93EC018D8181FD17C082608D834E
:103C60009091A2028B81892B8093A2029091830173
:103C70008C81892B809383010E940F16488559857A
:103C80006E857F85CE010E94051E1092A4021092BF
:103C9000A3028D8180FD03C0CE010E940B1EDF9127
:103CA000CF910895A0E2B0E0E8E5FEE10C94CF1FCB
:103CB0009FEF99838A83CE0101960E94CD0FA09633
:103CC000E2E00C94EB1F0E941C1D20919E0221112A
:103CD00004C020919F02222321F090939C028093A4
:103CE0009B022091A002211104C02091A102222355
:103CF00021F090939A0280939902E091A702F091AB
:103D0000A802309731F00480F581E02D8DE992E032
:103D1000099508958091980280FD18C081FD14C016
:103D200082FD16C080919702882381F08C3380F445
:103D300027E0829FC00111246CE370E00E944E20B6
:103D4000862F672B19F005C083E0089581E0089560
:103D500087E008958091980280FD17C081FD17C00B
:103D600082FD19C080919602882399F08C3398F4D3
:103D700028E3829FC00111246CE370E00E944E2072
:103D8000862F672B49F481E008958EE008958CE139
:103D9000089588E0089588E30895282F35EB2303DC
:103DA000C001112497FF03C08058910902C08058B8
:103DB0009F4F892F08951092B9008CE08093B8002E
:103DC0000895A0E0B0E0E7EEFEE10C94C61FB82E27
:103DD000EB010E941C1D6C01C431D10558F0CF3F8E
:103DE0008FEFD80759F0CE0164E170E00E94AB1F5D
:103DF0007B0107C0EE24E394F12C03C025E0E22E02
:103E0000F12C84E8A82E94EA992E1092BC0090928E
:103E1000BC000E941C1D8C018091BC0087FD07C066
:103E2000C8010E940D1DE816F906B0F729C080915F
:103E3000B900887F883041F08091B900887F803157
:103E400019F00FEF1FEF1EC0B092BB00A092BC0094
:103E50000E941C1D8C018091BC0087FD07C0C80119
:103E60000E940D1DE816F906B0F70AC08091B9004E
:103E7000887F883111F0803421F700E010E00EC017
:103E80000EEF1FEFCF3F8FEFD80709F4BECFC6016B
:103E90000E940D1DC817D90708F0B7CFC801CDB7CC
:103EA000DEB7EBE00C94E21F0F931F93CF93DF93E9
:103EB000EB018093BB0084E88093BC000E941C1D32
:103EC0008C018091BC0087FD0DC0CF3F8FEFD807DC
:103ED000C1F3C8010E940D1DC817D90790F78EEFD6
:103EE0009FEF0CC02091B900287F81E090E028323C
:103EF00011F480E090E0919581959109DF91CF9147
:103F00001F910F9108950F931F93CF93DF93EC01AF
:103F100084E88093BC000E941C1D8C018091BC0031
:103F200087FD0DC0CF3F8FEFD807C1F3C8010E94B6
:103F30000D1DC817D90790F78EEF9FEF03C0809132
:103F4000BB0090E0DF91CF911F910F91089584E91C
:103F50008093BC000895AA1BBB1B51E107C0AA1F98
:103F6000BB1FA617B70710F0A61BB70B881F991F1A
:103F70005A95A9F780959095BC01CD0108952F928F
:103F80003F924F925F926F927F928F929F92AF92E9
:103F9000BF92CF92DF92EF92FF920F931F93CF9336
:103FA000DF93CDB7DEB7CA1BDB0B0FB6F894DEBFCD
:103FB0000FBECDBF09942A88398848885F846E84F3
:103FC0007D848C849B84AA84B984C884DF80EE803D
:103FD000FD800C811B81AA81B981CE0FD11D0FB646
:103FE000F894DEBF0FBECDBFED010895F999FECF65
:103FF00092BD81BDF89A992780B50895A6E1B0E0F9
:1040000044E050E00C944020A8E1B0E042E050E0F1
:104010000C944020DC01A40FB51F4150504048F0E3
:10402000CB01840F951F2E910E941B2041505040C0
:10403000D0F70895262FF999FECF92BD81BDF89A49
:10404000019700B4021639F01FBA20BD0FB6F894DC
:10405000FA9AF99A0FBE08950396272F0E941B2003
:104060000E941A20252F0E941B20242F0C941B2015
:104070000196272F0E941B200C941A20DC01CB01F3
:10408000FC01F999FECF06C0F2BDE1BDF89A319668
:1040900000B40D9241505040B8F7089597FB072E99
:1040A00016F4009407D077FD09D00E94AB1F07FCDF
:1040B00005D03EF4909581959F4F08957095619538
:1040C0007F4F0895EE0FFF1F0590F491E02D0994A6
:1040D0000F931F93CF93DF938230910510F482E00A
:1040E00090E0E091B202F091B30220E030E0A0E075
:1040F000B0E0309719F14081518102811381481756
:104100005907C8F08417950769F4109731F0129693
:104110000C93129713961C9327C00093B20210932E
:10412000B30222C02115310519F04217530718F4C4
:104130009A01BD01EF01DF01F801DBCF2115310547
:10414000F9F0281B390B2430310580F48A819B81DA
:104150006115710521F0FB019383828304C0909364
:10416000B3028093B202FE01329644C0FE01E20F18
:10417000F31F8193919322503109398328833AC0E8
:104180002091B0023091B102232B41F42091020121
:10419000309103013093B1022093B00220910001CD
:1041A000309101012115310541F42DB73EB7409101
:1041B000040150910501241B350BE091B002F091F0
:1041C000B102E217F307A0F42E1B3F0B28173907A3
:1041D00078F0AC014E5F5F4F2417350748F04E0F63
:1041E0005F1F5093B1024093B0028193919302C03C
:1041F000E0E0F0E0CF01DF91CF911F910F910895A2
:10420000CF93DF93009709F481C0FC0132971382AA
:104210001282A091B202B091B302109781F4208172
:104220003181820F931F2091B0023091B102281783
:10423000390751F5F093B102E093B00267C0ED0188
:1042400020E030E0CE17DF0740F44A815B819E0119
:1042500041155105F1F0EA01F5CFD383C2834081C6
:104260005181840F951FC817D90759F48881998106
:10427000840F951F0296918380838A819B8193830B
:1042800082832115310529F4F093B302E093B20241
:104290003DC0E901FB83EA8349915991C40FD51FC1
:1042A000EC17FD0761F480819181840F951F0296C0
:1042B000E90199838883828193819B838A83E0E0EB
:1042C000F0E012968D919C911397009719F0FD01E3
:1042D000DC01F7CF8D919C9111979D012E5F3F4F8F
:1042E000820F931F2091B0023091B1022817390735
:1042F00069F4309729F41092B3021092B20202C00E
:1043000013821282B093B102A093B002DF91CF91D9
:104310000895FB01DC0104C08D910190801921F406
:1043200041505040C8F7881B990B0895F894FFCF6F
:104330000000B402200001C01CE50ADE0AD70A20F2
:104340000000000000000000009D038D030000003D
:10435000004422476DDC01BA017301060132024BB1
:10436000026B028402476F6C47332F344D72395110
:1043700000818283E200E900EA00B500B600B700E0
:10438000CD008301CC008A01920194012102230215
:1043900024022502260227022A02B300B4006F007D
:0A43A00070009F01CB019F02A002F4
:00000001FF
